:020000040800F2
:1000000070090020990100088D3B0008C7340008E2
:10001000093B0008910E0008554B00080000000045
:10002000000000000000000000000000694300081C
:100030008312000800000000E53D0008C1430008ED
:10004000B3010008B3010008B3010008B3010008C0
:10005000B3010008B3010008B3010008B3010008B0
:10006000B3010008B3010008B3010008B3010008A0
:10007000B3010008B3010008B30100084D120008E5
:10008000B3010008B3010008B3010008B301000880
:10009000B3010008B3010008B3010008B301000870
:1000A000B3010008B3010008B3010008B301000860
:1000B000B3010008B3010008B3010008B301000850
:1000C000B3010008B3010008B30100084D43000864
:1000D000B3010008854A0008B3010008B301000815
:1000E000B3010008B3010008B301000800F002F8F2
:1000F00000F042F80AA090E8000C82448344AAF180
:100100000107DA4501D100F037F8AFF2090EBAE87D
:100110000F0013F0010F18BFFB1A43F0010318473B
:10012000D05A0000F05A0000103A24BF78C878C1B5
:10013000FAD8520724BF30C830C144BF04680C60ED
:10014000704700000023002400250026103A28BF35
:1001500078C1FBD8520728BF30C148BF0B60704739
:10016000782900F0B180732900F0118300207047D6
:100170001FB51FBD10B510BD00F03FFB1146FFF7C6
:10018000F7FF04F087FE00F05DFB03B4FFF7F2FF1A
:1001900003BC00F065FB00000948804709480047A0
:1001A000FEE7FEE7FEE7FEE7FEE7FEE7FEE7FEE727
:1001B000FEE7FEE704480549054A064B7047000084
:1001C00021440008ED0000087003002070090020A1
:1001D0007005002070050020B2F120030AD5C2F19D
:1001E000200320FA02F001FA03F321FA02F140EAB7
:1001F0000300704721FA03F04FF000017047000040
:100200000FB41CB5074B06AA7B44694600900598BD
:1002100000F093FA0020694600F0A2FA1CBC5DF8D9
:1002200014FB00005505000070B5044685690068A0
:10023000C10601D5302600E02026C00707D070BDDA
:10024000D4E9012130469047206A401C20626D1E8F
:10025000F6D570BD70B5044685690078C00707D132
:1002600070BDD4E9012120209047206A401C206203
:100270006D1EF6D570BD70B50C460546012A05D039
:100280002878800600D5EA69002302E0012305E012
:100290005B1C934202D2E05C0028F9D1A869E61801
:1002A000C01AA861286A184428622846FFF7BCFFD4
:1002B00004E0D5E9012114F8010B9047B442F8D3CA
:1002C0002846FFF7C7FF70BD70B504460D462146AE
:1002D0001068AFF300802188090502D50F4A7A44DF
:1002E00002E00E4A7A440E32002104F1240305E0B4
:1002F00000F00F060009965D5E54491C0028F7D1F6
:1003000020780023000704D5702D02D009B1022304
:1003100011322046BDE8704000F0B1B9D458000059
:100320002DE9F05F894604464FF0000ADFF874B10A
:10033000FB44C0F820A02046E1688847002874D01C
:10034000252806D0D4E901219047206A401C20626C
:10035000F1E700265F462046E168884720280546E9
:1003600007DB312D05D2781910F8200C08B10643AF
:10037000F1E7B00701D526F00406C4F81CA0002759
:10038000C4F818A02A2D09D0284604F058FD38B327
:1003900004EB8708303DC8F8185019E059F8041BE1
:1003A000204604EB87029161E1688847012F0546EA
:1003B00018D1E069002820DA26F020061DE0D8F8E0
:1003C000180000EB800005EB40003038C8F818003A
:1003D0002046E1688847054604F031FD0028EED14B
:1003E000012F0AD02E2D08D12046E16888477F1CB6
:1003F0000546022F46F02006C4DBA069002803DA78
:10040000404246F00106A061F00701D026F0100638
:100410006C2D0BD0682D09D04C2D39D06A2D35D0DC
:10042000742D35D07A2D33D016E038E0E1682F46B0
:1004300020468847B842054609D16C2F26D04FF494
:100440008060E168064320468847054604E06C2F3B
:100450001AD04FF4807006430DB3A5F1410019285E
:1004600002D8203546F400664A46294620462660D2
:100470004E46FFF775FE80B101280BD0F61D26F021
:10048000070000F1080956E74020E4E78020D8E79C
:100490000020D6E706F104094DE7284652E7206A16
:1004A000BDE8F09FAA580000401ECAB210F8011F14
:1004B0008A4202D00029F9D10020704730B50546A4
:1004C0000B462A4613F8014B12F8010B08B1A04263
:1004D000F8D01CB1002802D06D1CF1E7284630BDD1
:1004E00010B5431C02E010F8011B71B18107FAD16D
:1004F0004FF0013202C88C1A8C4314EAC211F9D0B1
:10050000C01A0A0603D0C01E10BDC01A10BD0A04CE
:1005100001D0801E10BD0902FCD0401E10BD032A70
:1005200040F2308010F0030C00F0158011F8013B10
:10053000BCF1020F624498BF11F801CB00F8013BF7
:1005400038BF11F8013BA2F1040298BF00F801CBBB
:1005500038BF00F8013B11F0030300F01C81083A9A
:10056000C0F0088051F8043B083A51F804CBA0E8E9
:100570000810F5E7121D5CBF51F8043B40F8043B3E
:10058000AFF30080D20724BF11F8013B11F801CB73
:1005900048BF11F8012B24BF00F8013B00F801CB44
:1005A00048BF00F8012B70474FF0000200B513461A
:1005B00094469646203922BFA0E80C50A0E80C5083
:1005C000B1F12001BFF4F7AF090728BFA0E80C5034
:1005D00048BF0CC05DF804EB890028BF40F8042B2D
:1005E00008BF704748BF20F8022B11F0804F18BF9A
:1005F00000F8012B704700004FF0013C50F8042B2D
:1006000051F8043B9A4221D1A2EB0C03934313EA25
:10061000CC1317D150F8042B51F8043B9A4215D152
:10062000A2EB0C03934313EACC130BD150F8042B29
:1006300051F8043B9A4209D1A2EB0C03934313EA0D
:10064000CC13DBD04FF00000704700BFD01A01BAC6
:10065000B1FA81F101F0180122FA01F0CB40C1F1A9
:100660002001DBB2C0B2C01A2CFA01F3D11A9143B7
:1006700011EAC311E6D170477047704770472DE902
:10068000F0470D4699469246044600F12408016859
:10069000880604D5E06921F01001216000E0012006
:1006A000A84201DD471B00E00027A1697A1902EB8F
:1006B0000900081AA0612078C00602D42046FFF77E
:1006C000B3FD002608E0D4E901211AF8060090479E
:1006D000206A401C761C20624E45F4DB2078C00660
:1006E0000AD52046FFF7A0FD06E0D4E9012130201D
:1006F0009047206A401C2062381EA7F10107F4DCF5
:1007000007E0D4E9012118F805009047206A401C51
:100710002062281EA5F10105F3DC2046FFF79AFDB3
:100720002078000602D50220BDE8F0870120FBE713
:1007300001694A1C02610878704700B58FB0CDE9A5
:1007400001310021059105497944CDE90310114695
:100750006846FFF7E5FD0FB000BD0000E5FFFFFFB5
:100760000A6802F8010B0A60704710B5436913B1BB
:10077000AFF3008001E0FFF77EFD012010BD12788D
:1007800000F124010A7000224A700122EDE711688D
:100790004FF0FF32E9E710B5203AC0F00B80B1E826
:1007A0001850203AA0E81850B1E81850A0E81850A6
:1007B000BFF4F5AF5FEA027C24BFB1E81850A0E8AF
:1007C000185044BF18C918C0BDE810405FEA827CC9
:1007D00024BF51F8043B40F8043B08BF7047D207E0
:1007E00028BF31F8023B48BF11F8012B28BF20F881
:1007F000023B48BF00F8012B7047754600F02CF80B
:10080000AE4605006946534620F00700854618B0FD
:1008100020B5FFF7CFFCBDE820404FF000064FF0B9
:1008200000074FF000084FF0000B21F00701AC4625
:10083000ACE8C009ACE8C009ACE8C009ACE8C00944
:100840008D46704710B50446AFF300802046BDE8E2
:100850001040FFF79ABC00000048704710030020CA
:1008600001491820ABBEFEE72600020070470000D9
:1008700070B522480168C07809BA21F0FF0404432A
:100880001F4801F060F84FF47A76A04214D01D485A
:1008900001F059F8A0420FD01B4801F054F8A042D3
:1008A0000AD01A4801F04FF8A04205D0184D28464A
:1008B00001F049F8A04203D103F069F915A204E060
:1008C000401C0DD003F063F918A20321002003F0AF
:1008D000BDF9304601F0CCF9BDE8704003F0F2BB41
:1008E000284601F017F80A2001F0C2F921462846EF
:1008F00001F02BF803F04BF911A2E6E76B000020A2
:10090000007C0008008000080084000800880008BF
:10091000008C00084361726420616C7265616479C7
:1009200020657869737473210000000041646D696B
:100930006E20436172642046756C6C2100000000DB
:1009400041646D696E204361726420416464656432
:10095000210000002DE9F0472C480168C07809BA51
:1009600021F0FF0404432A4800F0EDFF4FF47A79A8
:10097000A04218D0274800F0E6FFA04213D0264F2F
:10098000384600F0E0FF0646A0420CD0DFF88C802D
:10099000404600F0D8FF0546A04204D0204800F0B1
:1009A000D2FFA04203D103F0F2F81EA206E0761CAB
:1009B0000FD06D1C1BD003F0EAF820A20321002009
:1009C00003F044F9484601F053F9BDE8F04703F05D
:1009D00079BB384600F09EFF0A2001F049F9214614
:1009E000384600F0B2FF03F0D2F818A2E6E7454619
:1009F000404600F08FFF0A2001F03AF921462846D0
:100A000000F0A3FF03F0C3F815A2D7E76B000020A6
:100A1000007C0008008000080084000800880008AE
:100A2000008C00084361726420616C7265616479B6
:100A30002065786973747321000000005573657236
:100A400020436172642046756C6C21005573657299
:100A500020436172643120416464656421000000B8
:100A60005573657220436172643220416464656429
:100A7000210000002DE9F047022403F088F83EA28F
:100A80000321002003F0E2F84FF47A7A504601F097
:100A9000EFF83F4803F028FA0028FAD13C480168F3
:100AA000C07809BA21F0FF0505433A4800F04BFF32
:100AB0008046394800F047FF0746384800F043FFBA
:100AC0008146374800F03FFF0646364800F03BFFBE
:100AD000454507D0BD4205D04D4503D0B54201D0B4
:100AE00085420BD103F053F803212FA2084603F0EF
:100AF000ADF85046BDE8F04701F0BAB803F047F84A
:100B000000212DA2084603F0A1F830A20221012005
:100B100003F09CF8042130A2012021E000F0BAF992
:100B2000552808D0442810D043281CD04528F5D19A
:100B300003F0C8FAF2E7042CF0D12AA221460020E3
:100B400003F084F802210C4608E0022CE6D125A22D
:100B50002146002003F07AF804210C4622A200204E
:100B600003F074F8DAE7022C02D0FFF781FED5E734
:100B7000FFF7F0FED2E70000506C656173652073EB
:100B800077697065206E657720636172640000008C
:100B90006B000020007C0008008000080084000832
:100BA00000880008008C00084944204361726420DA
:100BB000526570656174000053656C65637420490B
:100BC00044204F626A65637400000000312D557344
:100BD00065725F4944000000322D41646D696E5FAB
:100BE00049440000200000003E0000002DE9F04FC5
:100BF00089B00024182168460694FFF7D5FC00262A
:100C000035463746079402F0C2FF86A20021022033
:100C100003F01CF888A20221002003F017F889A233
:100C20000421002003F012F889A20621002003F01D
:100C30000DF88A4800F087FEDFF824920890A9F1A9
:100C4000060888A298F8020019F80010082002F09F
:100C5000FDFF0DF1180AEB4600F01CF90446303890
:100C6000092832D898F802301AF80320062A2CD224
:100C70000832D0B219F803107BA202F0E7FF98F80F
:100C80000210C1EBC1031AF8010003EB0B028454FC
:100C90008DF81C4000228DF81D20083019F8011035
:100CA000C0B207AA02F0D2FF98F802101AF80100A9
:100CB000401CC0B20AF80100062802D219F801103F
:100CC00058E0C82000F0D4FFC6E7522C0ED0552CB7
:100CD00029D0442C38D0452C52D0432CBCD10022F2
:100CE0006FF02F019DF81830584655E098F8020033
:100CF0001AF80030002BAFD05B1ED9B2C0EBC00495
:100D000004EB0B030AF800100022CA5419F8003053
:100D10000831C8B24C4654A2194602F097FF98F821
:100D20000200215C24E098F802004446002893D099
:100D300019F800101AF800004BA20830C0B202F0F7
:100D400085FFA078401E0FE098F802004446022874
:100D500082D219F800101AF8000043A20830C0B27D
:100D600002F074FFA078401CC0B2A07019F8001007
:100D70001AF800003BA20830C0B202F067FFA0E7FB
:100D800003F0A0F909B0BDE8F08F845C06EB86069D
:100D900001EB46062644521C9342F6DC00229DF8E5
:100DA000193007E0841805EB8505E47901EB45056A
:100DB0002544521C9342F5DC00229DF81A3007E0CE
:100DC000841807EB8707A47B01EB47072744521CD5
:100DD0009342F5DC08984FF47A74864216D1BD42EE
:100DE00014D1AE4212D002F0D2FE20A20321002084
:100DF00002F02CFF194D284600F08CFD0A2000F06F
:100E000037FF3946284600F0A0FD06E002F0BFFE9D
:100E10001BA20321002002F019FF204600F028FF4A
:100E2000AEE700004368616E67652041646D696EDE
:100E300020507764000000004F6C645F5077643A84
:100E4000000000004E65775F5077643A00000000B4
:100E5000436F6E5F5077643A000000000090000816
:100E6000680000205F0000002000000041646D6900
:100E70006E20507764204368616E676564210000CE
:100E800050617373776F7264204572726F722100C4
:100E9000FEE700002DE9F05F0026344601F0A6F8D9
:100EA000DFF89CA281469AF8000028B1DAF8041015
:100EB000A9EB0100C82871D3A24D01220F212846B9
:100EC00001F08FF8A04FDFF884B2A84607E036B1F2
:100ED000012E11D0022E17D0032E1FD147E0002281
:100EE00001214546404601F07CF801220E212846AA
:100EF00001F077F85D4611E000220221404601F042
:100F000070F801220D2106E000220421404601F084
:100F100068F801220B21404601F063F8012000F03F
:100F2000A7FE0121284601F057F840B302212846C8
:100F300001F052F830B30821284601F04DF828B3EB
:100F40001021284601F048F820B3761CF6B2042E92
:100F5000BDD301220F21404601F043F8002C1DD0E3
:100F6000142000F085FE4FF0000B5E461FE00022CB
:100F70000821404601F035F801220721CBE717F898
:100F80002640E6E707EB86004478E2E707EB8600B9
:100F90008478DEE707EB8600C478DAE7CEE036B186
:100FA000012E11D0022E17D0032E1FD127E00022D0
:100FB00001214546404601F014F801220E21284641
:100FC00001F00FF8614D11E000220221404601F0CE
:100FD00008F801220D2106E000220421404601F01C
:100FE00000F801220B21404600F0FBFF012000F039
:100FF0003FFE0121284600F0EFFF40B111E0002242
:101000000821404600F0EDFF01220721EBE717F829
:101010002600A04205D101220F21404600F0E1FF49
:1010200029E00221284600F0D7FF20B907EB86000F
:101030004078A042EFD00821284600F0CDFF20B92B
:1010400007EB86008078A042E5D01021284600F00A
:10105000C3FF20B907EB8600C078A042DBD0761C26
:10106000F6B2042E9BD301220F21404600F0B9FFB7
:101070005FEA0B0046D046464FF00108002707E024
:1010800037B1012F0CD0022F3ED0032F12D143E0F5
:1010900000220121304600F0A4FF01220E2106E0CB
:1010A00000220221304600F09CFF01220D21304633
:1010B00000F097FF012000F0DBFD0121284600F041
:1010C0008BFF88B30221284600F086FF60B3082119
:1010D000284600F081FF38B31021284600F07CFF3D
:1010E00010B37F1CFFB2042FCAD301220F21304658
:1010F00000F077FFB8F1000F1CD08AF800402046BE
:10110000CAF80490BDE8F09F00220421304600F0A8
:1011100068FF01220B21CAE700220821304600F0B7
:1011200060FF01220721C2E7FFE701220F213046BD
:1011300000F057FF0A2000F09BFD9DE70020E1E74B
:101140001800002000080140A6530008000C0140D0
:1011500010B501220F21044800F043FF034800218D
:101160000170416010BD000000080140180000201F
:1011700010B5022402F00BFD22A20321002002F090
:1011800065FD4FF47A7000F073FD02F000FD002160
:101190001CA2084602F05AFD1EA20221012002F004
:1011A00055FD1FA20421012002F050FDFFF772FE41
:1011B000552806D044280DD043281AD04528E6D11A
:1011C00010BD022CE3D919A22146002002F03EFDF9
:1011D000A41E07E0042CDAD214A22146002002F05B
:1011E00035FDA41CE4B212A22146002002F02EFD1F
:1011F000CDE7022C02D0FFF7F9FCC8E703F0ACFC06
:10120000C5E700004368616E67652070617373779E
:101210006F726400312D557365725F505744000042
:10122000322D41646D696E5F50574400200000000C
:101230003E00000070B50C46054602F02DFF20EA86
:1012400004012846BDE8704003F0D6BD014800F017
:10125000FFBB0000AC02002030B590F840500124E4
:10126000AC40C56B6C60046863604368102B036816
:1012700003D099600068C26030BD9A600068C160A8
:1012800030BD70472DE9F04F9FB00024884800F032
:101290005AFB411C25464FF00106EA4607D08DF85F
:1012A00004508DF8055000908DF8065001248148B7
:1012B00000F049FB411C07D04AF834000AEBC40097
:1012C000641C0571467186717B4800F03CFB411C33
:1012D0004FF0020B08D04AF834000AEBC400641C3B
:1012E000057180F805B08671744800F02CFB411C34
:1012F00007D04AF834000AEBC400641C067145713B
:1013000085716F4800F01FFB411C07D04AF834007C
:101310000AEBC400641C06714671867144B1601EFC
:1013200003211E9090FBF1F04FF000094D4605E0BF
:1013300002F02DFC63A2A9E0C94534D002F027FCDD
:1013400064A20021022002F081FC09EB490000F0B8
:10135000FF081D9008F10300C7B2A74200D9274635
:1013600046461EE0A6EB08010BEB4100C0B21C9004
:10137000AE4201D15BA200E05BA200201C9902F00A
:1013800065FC0AEBC6005AF836200079B0B157A1C7
:1013900014A8FEF735FF14AA02201C9902F056FC8F
:1013A000761CBE42DEDBFFF775FD552808D04428C9
:1013B0001DD043282AD0452870D012E04DA1E7E780
:1013C000281E0BD0451E1D98EDB2A84202D9A9F1E6
:1013D000010018E0962000F04BFC64E0962000F03D
:1013E00047FC142000F044FCAD42A7D1A4E71E98AE
:1013F00029468542F2DA4D1C09F10100EDB200EBFD
:101400004001A942E6D800F0FF09E3E70AEBC50076
:101410008079D0B102F0BBFB022138A2084602F06D
:1014200015FC00F0E3FD064640F6B837FFF732FD45
:10143000432814D0452836D000F0D8FD801BB84290
:1014400031D8322000F014FCF0E702F0A0FB30A20B
:101450000321002002F0FAFB4FF47A7024E00AEB3B
:10146000C5000179407911B1012809D00BE00128AC
:1014700002D0022802D006E00E4802E00E4800E04A
:101480000F4800F047FA02F082FB28A20321022055
:1014900002F0DCFB4FF47A7000F0EAFB02F012FE7F
:1014A0001FB0BDE8F08F142000F0E2FB46E700001B
:1014B000007C000800840008008800080080000804
:1014C000008C00084E6F204361726420466F756E79
:1014D0006421000044656C657465204944204361C3
:1014E000726400003E000000200000002530386CCF
:1014F000582041002530386C58205500436F6E66E7
:1015000069726D2064656C6574696F6E3F000000E0
:1015100043616E6E6F742064656C657465206669E6
:101520007865642063617264210000004361726425
:101530002044656C65746564210000002DE9F0416C
:101540000B4C07460025207878B1608868B10026EA
:1015500026706088884200D2618838460D460A4667
:101560000449FEF7DCFF7E5566802846BDE8F08121
:10157000040000206401002070B5BAB02CA000F077
:101580000FF94FF4FA74204600F072FB2AA000F025
:1015900007F940F6B835284600F06AFB29A000F0AC
:1015A000FFF8204600F064FB2A4B2BA1A3F12C028C
:1015B00020A8FEF725FE20A800F0F2F842F21070F5
:1015C00000F056FB2AA000F0EBF86600304600F071
:1015D0004FFB2AA000F0E4F8204600F049FB2BA0C6
:1015E00000F0DEF8204600F043FB2CA000F0D8F815
:1015F000284600F03DFB33A000F0D2F8204600F072
:1016000037FB34A000F0CCF8204600F031FB114B42
:1016100034A1283BDA1D6846FEF7F2FD684600F06B
:10162000B1F8304600F024FB3AB0012070BD000054
:1016300041540D0A0000000041542B5253540D0A2E
:101640000000000041542B43574D4F44453D310DA0
:101650000A0000005800002041542B43574A4150D3
:101660003D222573222C222573220D0A0000000042
:1016700041542B43494653520D0A000041542B4319
:101680004950434C4F53450D0A00000041542B4331
:1016900049504D55583D300D0A00000041542B4330
:1016A000495053544152543D22544350222C2262FB
:1016B000656D66612E636F6D222C383334340D0AEC
:1016C0000000000041542B4349504D4F44453D31EB
:1016D0000D0A000041542B43495053454E440D0A16
:1016E00000000000636D643D31267569643D25731B
:1016F00026746F7069633D25730D0A0010B515A13E
:10170000FEF7DCFE002824D0001D04460D21FEF764
:10171000CBFE48B90A212046FEF7C6FE20B9262195
:101720002046FEF7C1FE08B1002101700BA1204642
:10173000FEF762FF48B10AA12046FEF75DFF0028D0
:1017400007D1BDE8104002F02CBBBDE8104002F00C
:1017500015BB10BD6D73673D000000006F6E00008B
:101760006F66660000B5C1B0FF216846FFF7E6FE70
:10177000002805D000210DF800106846FFF7BEFFD5
:1017800041B000BD10B50446FEF7AAFE214682B264
:10179000BDE810406423014801F044BE640200200B
:1017A00010B50446FEF79CFE82B26423214604482D
:1017B00001F038FEBDE81040642000F059BA000086
:1017C0006402002000B5064BA1B0DA1D05A16846F1
:1017D000FEF716FD6846FFF7D5FF21B000BD0000FB
:1017E00030000020636D643D30267569643D2573CB
:1017F00026746F7069633D25730D0A0072B6FEE7AB
:1018000006490020C8610648016941F004010161F0
:10181000016941F04001016170470000F0020020C1
:1018200000200240064A0021D16106490A6942F0BF
:1018300002020A614861086940F04000086170478F
:10184000F002002000200240044B0022DA61044A2A
:10185000136943F00103136101807047F002002017
:101860000020024014480022C168CB06134904D569
:10187000CA6942F00202CA611022C3685B0705D53B
:10188000CB6943F00103CB6142F00402C369DB077B
:1018900007D0CB6943F00403CB61C16921F001019A
:1018A000C161A2F58071013901D0C2607047C16980
:1018B00021F00101C161704700200240F0020020C8
:1018C00070B5054600F092FB0646114C09E0681C15
:1018D00007D025B100F08AFB801BA84201D9032064
:1018E00070BDE068C007F2D1E068800601D5202015
:1018F000E060E068C00605D4E069C00702D1E06896
:10190000400703D5FFF7AEFF012070BD002070BD7A
:101910000020024010B586B0044600F059FA0020BD
:10192000049000900120CDE9024004A9684600F02F
:10193000B1F920B100F002FA002006B010BD00F0AD
:10194000FDF90120F9E70068704770B50C460546BF
:1019500000F03EFA224600232946022000F0F8F962
:1019600018B100F0EBF9012070BD00F0E7F900209C
:1019700070BD10B590F821100022022905D0042175
:10198000816380F82020012010BD01680B6823F0DE
:101990000E030B6001680B6823F001030B6090F8E5
:1019A0004030C46B012101FA03F3636080F8211019
:1019B00080F82020104610BD10B590F821100024AA
:1019C000022903D00421816301243DE001680A68F3
:1019D00022F00E020A6001680A6822F001020A6021
:1019E0001A4A0168914201D1012121E0174A1432BB
:1019F000914201D110211BE0144A2832914201D1B9
:101A0000891515E0114A3C32914201D189140FE049
:101A10000E4A5032914202D14FF4803108E00B4A15
:101A20006432914202D14FF4801101E04FF0807195
:101A3000064A083A5160012180F82110002180F8FF
:101A40002010416B01B18847204610BD08000240BC
:101A50002DE9F05FC16B0C6801680B68D0F840C0DD
:101A6000042202FA0CF2494DDFF824A1494E4A4FF4
:101A7000DFF828B1DFF828E122422CD05A072AD516
:101A80000A68920603D40A6822F004020A60016818
:101A9000A94201D1042219E0514501D1402215E0AB
:101AA000B14202D14FF4806210E0B94202D14FF44A
:101AB00080420BE0594502D14FF4802206E0714587
:101AC00002D14FF4800201E04FF080622F490839C3
:101AD0004A60C16A3BE04FF0020808FA0CF818EAC5
:101AE000040F4FF000094FF0010235D05FEA837810
:101AF00032D50B689B0605D40B6823F00A030B60F4
:101B000080F821200168A94201D1022219E0514543
:101B100001D1202215E0B14202D14FF4007210E051
:101B2000B94202D14FF400520BE0594502D14FF4B3
:101B3000003206E0714502D14FF4001201E04FF08F
:101B40000072124908394A6080F82090816A0029A1
:101B50001AD0BDE8F05F0847082505FA0CF52542C4
:101B600012D01B0710D50B6823F00E030B6090F802
:101B70004010C36B02FA01F15960826380F82120A2
:101B800080F82090016BE2E7BDE8F09F080002407A
:101B90001C00024030000240440002405800024055
:101BA0006C00024030B528B308C813491422194408
:101BB000B1FBF2F18900C1631049816302214177D1
:101BC0001A6843F6F0718A43D0E900142143D0E942
:101BD00002452C432143046921434469214384691C
:101BE00021431143196000214163012242770177AB
:101BF000084630BD012030BDF8FFFDBF00000240A7
:101C000070B5044690F82000002501280CD0012072
:101C100084F8200094F821600020012E06D084F87A
:101C200020000225284670BD022070BD022684F8DF
:101C30002160A0632068066826F001060660204641
:101C4000FFF70AFBE06A00282068016802D041F033
:101C50000E0106E021F0040101602068016841F0F6
:101C60000A0101602068016841F001010160D9E7C3
:101C700070B5044600F0BAF90546601C02D004486D
:101C80000078044400F0B2F9401BA042FAD370BDC2
:101C9000080000202DE9F047054626480F4601269A
:101CA000017E01290FD00121814601762868DFF8E5
:101CB00088804CF25034022808D0A2462046FFF714
:101CC000FFFDA8B131E00220BDE8F0872046FFF714
:101CD000F7FD08BB0120FFF793FD2046FFF7F0FD5D
:101CE000D8F81010064621F00401C8F810101CE0C6
:101CF0004FF0FF303860AC6811E02046FFF792FDEE
:101D00005046FFF7DDFDD8F81010060021F0020163
:101D1000C8F8101001D03C6007E004F58064D5E9F4
:101D2000020100EB8120A042E7D8002189F81810B9
:101D30003046C9E7F0020020002002400348016954
:101D400041F0800101610020704700000020024046
:101D50002DE9F05F07461C4888460024017E1546A1
:101D60001E46012909D00121814601764CF2503AE4
:101D70005046FFF7A5FD18B122E00220BDE8F09F14
:101D8000012F02D0022F00D00427D346DFF83CA059
:101D9000220128463146FEF71FFA81B208EB4400C3
:101DA000FFF752FD5846FFF78BFDDAF8102022F0BE
:101DB0000102CAF8102018B9641CE4B2BC42E7D38F
:101DC000002289F81820D9E7F00200200020024004
:101DD000064900200A69120607D5054A4A60054AE5
:101DE0004A600969090600D50120704700200240B9
:101DF00023016745AB89EFCD2DE9F84FDFF8B891A6
:101E00000024A9F1040B23460F2709F1040AABF1C2
:101E1000040EC9E00125A5402A40AA427DD1674EA3
:101E2000D1F804C0ACEB0608B44532D014DCBCF1E8
:101E3000030F3AD009DCBCF1000F2AD0BCF1010F2E
:101E40001CD0BCF1020F31D11DE0BCF1110F17D035
:101E5000BCF1120F2AD119E0B8F5881F19D006DCA1
:101E6000B8F5803F15D0B8F5801F1FD111E0B8F547
:101E7000001F0ED0B8F5041F18D10AE0CB6815E09A
:101E8000CB681B1D12E0CB6808330FE0CB680C3326
:101E90000CE08B682BB1012B4FF0080303D0456198
:101EA00004E0042302E0056100E00023FF2A01D8DA
:101EB000064601E000F104064FEA840501D9A5F1C8
:101EC0002005D6F8008007FA05FC28EA0C0803FA7A
:101ED00005F548EA0508C6F800804D68ED0062D5B2
:101EE000374DAE6946F00106AE61AD6924F00306D8
:101EF00005F001050095334D06EB050CDCF80850A4
:101F0000A607360F07FA06F825EA0805DFF8B880B5
:101F1000404503D14FF0000817E044E0DFF8AC8003
:101F2000404502D14FF001080FE0DFF8A4804045A2
:101F300002D14FF0020808E0DFF89880404502D156
:101F40004FF0030801E04FF0040808FA06F848EAE9
:101F50000508CCF808804D68D9F80060ED024D46C0
:101F600001D5164300E096432E604D68DAF8006014
:101F7000AD02554601D5164300E096432E604D68EC
:101F8000DBF80060AD035D4601D5164300E09643E3
:101F90002E604D68DEF80060ED03754601D51643EE
:101FA00000E096432E60641C0D682A46E5407FF4ED
:101FB00031AFBDE8F88F00000804014000001110A7
:101FC000001002400000014000080140000C0140E8
:101FD00000100140001401408068084000D001203A
:101FE00070470AB1016170470904FBE70148806846
:101FF000704700000800002070B5040025D094F858
:102000003D00002520B984F83C50204600F0E6F958
:10201000242084F83D002068016821F0010101605E
:102020002068016841F4004101602068016821F4E2
:102030000041016000F02EFB4D4A6168914201D8D9
:102040004C4900E04C49884201D2012070BD4B4907
:102050002368B0FBF1F15E6826F03F060E435E6038
:102060006368934206D94FF4967359434FF47A73D9
:10207000B1FBF3F12368491C1E6A26F03F06314389
:1020800019626168914210D84900401EB0FBF1F21C
:10209000521CC2F30B02042A01D2042022E0B0FB3E
:1020A000F1F0401CC0F30B001CE0A268F2B301EB9E
:1020B000C10303EB0116431EB3FBF6F35B1C43F4B1
:1020C00080431B0549D092B301EBC10202EB011121
:1020D000401EB0FBF1F0401CC0F30B0040F4804008
:1020E00040F400402168CA694CF6FF739A431043DC
:1020F000C861D4E9071001432068026822F0C002D9
:1021000011430160D4E9030101432068826848F269
:10211000FF339A4311438160D4E9050108432168E4
:10212000CA6822F0FF021043C86001E00EE016E02A
:102130002068016841F0010101602564202084F8D5
:102140003D00256384F83E50002070BD01EB410640
:10215000431EB3FBF6F35B1CB3E70120C2E701EBC0
:102160004101401EB0FBF1F0401CC0F30B00B7E78B
:10217000A086010080841E0000093D0040420F003F
:102180002DE9F84F1F4690468A460446DDF8289010
:10219000FFF72CFF054694F83D0020287FD1192336
:1021A000012240492046009501F074FA002876D1BA
:1021B00094F83C00012872D0012084F83C0020688B
:1021C0000168C90703D1016841F00101016020687D
:1021D000016821F400610160212084F83D00102095
:1021E00084F83E0000262664C4F824806785608D4C
:1021F00020852D48E0622B464A465146204601F094
:102200007BF990B9206841698069009036E02A46E0
:102210004946204601F0E4FA50B1206C042804D16C
:102220002068016841F4007101600120BDE8F88F69
:10223000606A216800780861606A401C6062618D94
:10224000491E6185218D491E89B221852268536905
:10225000DB435B070BD451B100781061606A401C0E
:102260006062608D401E6085208D401E20852A465C
:102270004946204601F0E2F90028CED1208D002801
:10228000C5D154F83D0B016841F400710160202074
:1022900004F81E09E67766770020C7E7FFE702200B
:1022A000C4E70000020010000000FFFF2DE9FF4F0F
:1022B00083B09A46DDE9119793460446DDF84080E5
:1022C000FFF794FE054694F83D0020287FD119239E
:1022D000012240492046009501F0DCF9002876D122
:1022E00094F83C00012872D0012084F83C0020685A
:1022F0000168C90703D1016841F00101016020684C
:10230000016821F400610160212084F83D00402033
:1023100084F83E0000262664C4F82480A4F82A909D
:10232000608D20852C48E062CDE9007553465A4601
:102330002046049901F02EF970B930E02A4639465A
:10234000204601F04DFA58B1206C042804D12068D1
:10235000016841F400710160012007B0BDE8F08F11
:10236000606A216800780861606A401C6062218DA3
:10237000491E89B22185628D521E62852268536989
:10238000DB435B070BD469B100781061606A401CC5
:102390006062208D401E2085608D401E6085208DEE
:1023A0000028CBD12A463946204601F047F90028BB
:1023B000CAD154F83D0B016841F40071016020203E
:1023C00004F81E09E67766770020C6E7FFE70220DB
:1023D000C3E70000020010000000FFFF10B586B048
:1023E0000021009101910291039100680F498842F8
:1023F0001AD10F4CA06940F00800A061A06969469D
:1024000000F008000490C0200090122001900320EA
:1024100003900848FFF7F0FCE06940F40010E06129
:10242000E06900F40010049006B010BD00540040B4
:1024300000100240000C01400248816802781144FB
:102440008160704708000020074810B5016841F01E
:1024500010010160032000F075F80F2000F006F86D
:1024600000F024F8002010BD0020024070B50D4D92
:1024700004464FF47A712878B1FBF0F00A490968F4
:10248000B1FBF0F000F0E8FB48B9102C07D20022B5
:102490002146501E00F036F800206C6070BD01200F
:1024A00070BD000008000020140000200C4808B592
:1024B000816941F001018161816901F001010091AF
:1024C000C16941F08051C161C06900F08050009045
:1024D0000448416821F0E06141F00071416008BDAD
:1024E0000010024000000140002809DB00F01F023C
:1024F000012191404009800000F1E020C0F8001166
:1025000070470000F0B40E4B1B680C46C3F3022367
:10251000C3F10705042D00D90425191D072901D28F
:10252000002300E0DB1E012606FA05F1491E2140CA
:1025300099409E40761E16403143F0BC02F06FBCBD
:102540000CED00E0064900F0070208684FF6FF03B3
:10255000184040EA0220034A104308607047000018
:102560000CED00E00000FA052DE9F0470F460500EC
:1025700061D0434E306800F00700B84209D230689D
:1025800020F0070038433060306800F00700B842A0
:1025900051D128683B4C810712D5400703D56068AC
:1025A00040F4E06060602878000703D5606840F47C
:1025B000605060606068A96820F0F00008436060C7
:1025C0002878C00728D06868012810D02168022820
:1025D00010D0890700292EDA616821F00301014338
:1025E0006160FFF703FD804641F288390DE0216804
:1025F0008903EFE78901EDE7FFF7F8FCA0EB08019D
:10260000494502D90320BDE8F0876068696800F099
:102610000C00B0EB810FEFD1306800F00700B8423A
:102620000BD9306820F0070038433060306800F084
:102630000700B84201D00120E5E72878400705D51A
:102640006068E96820F4E06008436060287800076B
:1026500006D56068296920F4605040EAC1006060D6
:1026600000F038F86168084AC1F30311515CC840B2
:102670000649086006480068FFF7F8FE0020C2E738
:1026800000200240001002408E5300081400002079
:102690000C0000200448054900684968044AC1F359
:1026A0000221515CC8407047140000200010024015
:1026B0009E5300080448054900684968044AC1F36C
:1026C000C221515CC8407047140000200010024035
:1026D0009E5300080E4A51680E4801F00C03042B6B
:1026E00011D0082B0FD10C48C1F38343C903C05C40
:1026F0000AD55168084AC1F34041921E515C054A0F
:102700005043B0FBF1F07047044948437047000064
:102710000010024000127A007E53000800093D00BC
:102720002DE9F84F040070D02078C04DC00749D083
:102730006868C0F38100012807D06868C0F3810091
:10274000022809D16868C00306D52868800339D5F6
:1027500060680028E7D035E06068B0F5803F0BD0B6
:1027600010B1B0F5A02F11D0286820F48030286077
:10277000286820F4802002E0286840F48030286037
:10278000606890B1FFF732FC06460AE0286840F422
:1027900080202860F0E700BFFFF728FC801B64283A
:1027A00073D828688003F7D50CE0FFF71FFC0646B6
:1027B00005E000BFFFF71AFC801B6428F0D82868EA
:1027C0008003F7D420789A4E80074FF001094FF02C
:1027D000000839D5686810F00C0F07D06868C0F39E
:1027E0008100022809D16868C00306D428688007E0
:1027F00014D52069012808D110E02069B0B1C6F8CD
:102800000090FFF7F3FB074605E00AE1FFF7EEFB58
:10281000C01B0228C4D828688007F7D528686169DA
:1028200020F0F80040EAC10028600DE0C6F8008002
:10283000FFF7DCFB074604E0FFF7D8FBC01B0228CC
:1028400023D828688007F7D4207800072CD579484A
:10285000A169D9B1C0F80090FFF7C8FB074604E0B2
:10286000FFF7C4FBC01B02280FD8686A8007F7D5A2
:1028700071484FF4FA510068B0FBF1F0009000BFCE
:102880000098411E0091FAD20EE080E0C0F800806E
:10289000FFF7ACFB074604E0FFF7A8FBC01B0228CC
:1028A00075D8686A8007F7D42078400760D5E86952
:1028B0000027C00008D4E86940F08050E861E8696A
:1028C000012700F0805000905C480168C90513D4CE
:1028D0000168834641F480710160FFF787FB8246FF
:1028E00006E000BFFFF782FBA0EB0A0064284ED889
:1028F000DBF80000C005F5D5E06801280AD008B172
:10290000052813D0286A20F001002862286A20F0E8
:10291000040002E0286A40F001002862E06841F209
:10292000883B98B1FFF762FB82460BE0286A40F0D3
:1029300004002862EEE700BFFFF758FBA0EB0A0196
:1029400059455AD8286A8007F6D50CE0FFF74EFBA8
:10295000824605E0FFF74AFBA0EB0A0159454CD837
:10296000286A8007F6D41FB1E86920F08050E8613A
:10297000E06988B36968C1F38101022944D0022863
:10298000C6F8608004D0FFF731FB044638E034E03D
:10299000FFF72CFB074604E0FFF728FBC01B0228CB
:1029A0002BD828688001F7D4206AB0F5803F05D184
:1029B0006868A16820F4003008436860D4E9080121
:1029C0000843696821F4741108436860C6F8609090
:1029D000FFF70CFB044606E025E000BFFFF706FB0F
:1029E000001B022809D828688001F7D51BE000BF2A
:1029F000FFF7FCFA001B022802D90320BDE8F88F7C
:102A000028688001F4D40EE00128F7D06868226AB3
:102A100000F48031914204D1616A00F47010884260
:102A200001D00120EAE70020E8E7000000100240A2
:102A30000000424280044242140000200070004026
:102A40007047000038B50446006842688168C94391
:102A50004B0606D5CB0704D1D3435B0601D4216CCA
:102A600005E08B0708D4D3431B0605D4616C01B085
:102A70002046BDE8304008478B0601D54B0646D4BA
:102A8000D3439B0643D44B060AD494F85130032B0E
:102A90003ED0636D43F004036365C36883680093AD
:102AA000890609D4616D41F0010161658168009179
:102AB000016821F040010160606D002827D0206886
:102AC000416821F0E0014160012084F85100900745
:102AD00022D02068416821F003014160104DE06C74
:102AE00040B14563E06CFEF767FF18B1606D40F0E0
:102AF00040006065A06C002809D04563A06CFEF71B
:102B00005BFF002803D0606D40F04000606538BD79
:102B1000C1688068009038BD2046FFF791FF38BD3E
:102B20005943000870B5040009D0606A002540B11F
:102B300025616561A56294F8510040B10CE0012067
:102B400070BD6068B0F5827FF4D0E561F2E784F88B
:102B50005050204600F040F8022084F851002068D0
:102B6000016821F040010160A088218900F4827091
:102B700001F404410843A18901F400610843217C68
:102B800001F002010843217D01F001010843218B7E
:102B900001F400710843217F01F03801084394F8E3
:102BA000201001F080010843218D01F400510843F9
:102BB00021680860A069042101EA1040216848608A
:102BC0002068C16921F40061C1616565012084F854
:102BD0005100002070BD000030B585B00024009485
:102BE0000194029403940068184988422CD1184833
:102BF000816941F480518161816901F480510491BE
:102C0000816941F0040181618069124D00F0040086
:102C10000490A020009002200190032003906946B8
:102C20002846FFF7E9F84020CDE900040120029092
:102C300069462846FFF7E0F8002211462320FFF7F7
:102C400061FC2320FFF750FC05B030BD003001408F
:102C5000001002400008014010B5401EB0F1807F16
:102C600001D3012010BD4FF0E02460610F216017F7
:102C700002F0D5F80020A06107202061002010BDDF
:102C800010B590F83C20012A22D0012280F83C2087
:102C9000CA688C6822F4407222434C6822F4806235
:102CA00022430C6822F4006222430C6922F4805211
:102CB00022434C6922F400522243C969002322F4C2
:102CC00080420A4301684A6480F83C30002010BD0D
:102CD000022010BD70B590F83C20012A26D00124B6
:102CE00080F83C40022280F83D2003685A689D68C5
:102CF00022F070060A6832435A600D4B02689A420D
:102D000008D0B2F1804F05D00A4B9A4202D00A4B4C
:102D10009A4204D1496825F080031943916080F8F4
:102D20003D40002180F83C10084670BD022070BD77
:102D3000002C0140000400400008004010B50400D1
:102D400003D094F83D0010B107E0012010BD002031
:102D500084F83C00204600F01FF8022084F83D0073
:102D6000211D206801F05EFB012084F8460084F8F4
:102D70003E0084F83F0084F8400084F8410084F865
:102D8000420084F8430084F8440084F8450084F845
:102D90003D00002010BD000008B5006806498842CB
:102DA00008D10648816941F400618161806900F4BD
:102DB0000060009008BD0000002C0140001002409F
:102DC00070B5044690F83C000025012817D0012674
:102DD00084F83C60022084F83D002068826822F07C
:102DE000770222F47F4282600868502838D00DDCD8
:102DF00020284FD005DC90B3102811D14AE00220E2
:102E000070BD302846D040280AD13BE060282FD042
:102E100070280DD0B0F5805F03D0B0F5005F12D000
:102E2000012584F83D60002084F83C00284670BDF0
:102E3000CB68D1E90121206801F030FB206881686E
:102E400041F0770109E0CB68D1E90121206801F068
:102E500025FB2068816841F480418160E1E719E049
:102E6000CA684968206801F0CDFB5021206806E05F
:102E7000CA684968206801F0D6FB6021206801F02B
:102E800017FBCEE7CA684968206801F0BBFB402108
:102E90002068F4E7226801461046F0E700B585B0E7
:102EA0000021009101910291039100680B49884231
:102EB00012D10B48816941F0040181618069694642
:102EC00000F0040004904FF4807000900220019004
:102ED00003900448FEF790FF05B000BD002C0140B0
:102EE000001002400008014070B5044690F83C0014
:102EF00000260D4601280FD0012084F83C006AB15D
:102F0000042A1DD0082A2FD00C2A3FD001260020E9
:102F100084F83C00304670BD022070BD206801F08E
:102F2000CFFA2068816941F00801816120688169D8
:102F300021F004018161206881692A69114311E04F
:102F4000206801F0E5FA2068816941F4006181613F
:102F50002068816921F480618161206881692A6922
:102F600041EA02218161D2E7206801F0FDFA206880
:102F7000C16941F00801C1612068C16921F0040103
:102F8000C1612068C1692A69114311E0206801F01C
:102F900017FB2068C16941F40061C1612068C16903
:102FA00021F48061C1612068C1692A6941EA022176
:102FB000C161ACE710B5040003D094F83D0010B136
:102FC00007E0012010BD002084F83C00204600F0FE
:102FD0001EF8022084F83D00211D206801F022FA2D
:102FE000012084F8460084F83E0084F83F0084F80D
:102FF000400084F8410084F8420084F8430084F8DB
:10300000440084F8450084F83D00002010BD70475E
:10301000704710B504460068406994F84110C0F349
:10302000C010212911D180B12068143050E8001F50
:1030300021F0800140E80012002AF5D1A06B08B110
:10304000FEF797FC204601F0CFFB2068406994F81A
:103050004210C0F38010222911D180B120681430B1
:1030600050E8001F21F0400140E80012002AF5D18D
:10307000E06B08B1FEF77DFC204601F08EFB0020DE
:1030800010BD7047F8B5016804460868CA684B6906
:1030900010F00F0F4FF0000559D003F0010602F4B5
:1030A0009077374365D0C10705D0D10503D5616C52
:1030B00041F001016164410705D5D90703D0616C76
:1030C00041F002016164810705D5D90703D0616C25
:1030D00041F004016164010707D502F0200131438A
:1030E00003D0616C41F008016164616C00293AD041
:1030F000800604D5900602D5204601F083FB2068A7
:103100004069616CC0F38010090700D460B32046A9
:1031100001F043FB20684069400621D52068143047
:1031200050E8001F21F0400140E80012002AF5D1CC
:10313000E06BA8B16D494163E06BFEF73DFC0028F0
:1031400011D0E06B416B01B0BDE8F0400847830649
:103150000FD593060DD52046BDE8F84001F052BBCF
:103160002046FFF78EFFF8BD2046FFF78AFF656413
:10317000F8BD266B2023012E7CD1C6067AD5D60653
:1031800078D508684868009048694FF00206400604
:1031900040D5E16B086840680004000CE8D0A28DBF
:1031A0008242E5D9E085886920282DD020680C303E
:1031B00050E8001F21F4807140E80012002AF5D188
:1031C0002068143050E8001F21F0010140E800128F
:1031D000002AF5D12068143050E8001F21F040018A
:1031E00040E80012002AF5D184F8423025632068B7
:1031F0000C3050E8001F21F0100140E80012002AB6
:10320000F5D1E06BFEF7B5FB6663A08DE18D401A4A
:1032100081B22AE0A08DE18D401A81B2E08D0028B4
:10322000A6D00029A4D022680C3252E8000F20F466
:10323000907042E80007002FF5D12068143050E864
:10324000002F22F0010240E80027002FF5D184F87A
:103250004230256320680C3050E8002F22F0100225
:1032600040E80023002BF5D166632046FFF7D0FE2F
:10327000F8BDFFE705062BD5150629D594F84100C2
:103280002128F5D1A068B0F5805F01D12069B0B1E7
:10329000206A411C2162216800784860E08C401E51
:1032A0000004000CE084E3D12068C16821F08001B3
:1032B000C1602068C16841F04001C160D8E7206A60
:1032C0000088C0F308004860206A801C2062E5E79F
:1032D0004006CDD55006CBD5CA68204622F0400224
:1032E000CA6084F8413000F0EDF8C1E79D4600085F
:1032F00070B5040004D094F84100002510B106E038
:10330000012070BD84F84050204600F023F82420AE
:1033100084F841002068C16821F40051C160204652
:1033200001F0D2FA2068016921F49041016120681E
:10333000416921F02A0141612068C16841F40051CE
:10334000C1606564202084F8410084F84200656310
:10335000002070BD70B586B0002506460095019529
:10336000029503950068224988423FD12149886926
:1033700040F480408861886900F480400490886946
:1033800040F00400886188691B4C00F00400049040
:1033900048150090022001900320039069462046C2
:1033A000FEF72AFD2015CDE9000569462046029565
:1033B000FEF722FD124C1148C4E900058020C4E943
:1033C000025020202561C4E905502046E561FEF742
:1033D000E9FB08B1FEF712FAF4630022114625203A
:1033E0006662FFF78FF82520FFF77EF806B070BD04
:1033F000003801400010024000080140580002401F
:10340000AC02002090F84230202B01D002207047FF
:1034100021B11AB10023036301F0B2BA0120704751
:10342000704770472DE9F843044690F841009846EC
:1034300016460D46202802D00220BDE8F88385B14B
:103440007EB100206064212084F84100FEF7CEFDAB
:10345000A6848146E684A0682027B0F5805F02D06C
:1034600003E00120E9E7206910B12E4600250EE0B7
:1034700000260CE08021204601F0CAFAA8B9C6B1A6
:1034800016F8010B21684860E08C401EE084E08C57
:103490004B464FF00002CDF800800028EAD14FF0F3
:1034A0004001204601F0B4FA40B184F84170032095
:1034B000C3E735F8020BC0F30800E3E784F8417076
:1034C0000020BAE77047FEE701684A69D243520517
:1034D0000FD46FF480624A61002140F8301F20222F
:1034E00042738173026942F0040202610173012098
:1034F0007047002070470000F8B50446C06A1E46B9
:103500000D461746082807D0012805D010F5803F42
:1035100002D0206B122804D12068016841F4807128
:103520000160134600224FF001112046009600F082
:10353000B1F840B120680068C00502D54FF40070B2
:1035400020640320F8BD2069B0F5804F0ED006201E
:10355000216800EAD51040F0F000086133463A4691
:103560000B49204600F0DEF878B902E005F0FE00D5
:1035700000E0E8B221680861054933463A46891FF0
:10358000204600F0CFF80028DCD00120F8BD000074
:10359000080001002DE9F843044600680D46DDE906
:1035A000089701689846164641F4807101604B46C1
:1035B00000224FF001112046009700F06BF848B14F
:1035C00020680068C00502D54FF400702064032015
:1035D000BDE8F883216805F0FE0008613B464A46D5
:1035E0001549204600F09EF888B920684169806935
:1035F00000903A464946204600F0F2F848B1206C67
:10360000042804D12068016841F4007101600120A0
:10361000DEE7F5B2B8F1010F09D02168300A086180
:103620003A464946204600F0DBF80028E7D12068FA
:1036300005610020CCE700000200010070B51646CD
:103640000D4604461EE02046FFF73EFF08B101206C
:1036500070BD681C16D0FEF7C9FC801BA84200D8BC
:1036600085B920684069C04340070BD5002044F865
:10367000300F20216173A073216941F02001216185
:103680002073E4E720684069C0434007DBD4002092
:1036900070BD00002DE9F047984617460D460446D8
:1036A000C1F30746DDF820902AE000BFB8F1FF3FE4
:1036B00026D0FEF79BFCA0EB0901414502D8B8F1EA
:1036C000000F1DD12068012E16D0806925EA000068
:1036D0000004000C12D00020B84211D1002044F8A0
:1036E000300F20216173A073216941F02001216115
:1036F00020730120BDE8F0874069E7E70120EBE790
:103700002068012E0AD0806925EA00000004000C20
:1037100006D00020B842C9D00020EBE74069F3E7AB
:103720000120F7E72DE9F047984616460D46044676
:103730004FF000094FF0200AC1F3074723E020684B
:103740004069C043400515D42068016841F4007108
:10375000016021686FF480604861C4F8309084F89B
:103760003DA084F83E90216C41F00401216484F86E
:103770003C9021E0701C06D0FEF738FCA0EB08005E
:10378000B04203D816B1012F1FD021E02068012FCD
:1037900015D0806925EA00000004000C18D000BF95
:1037A00044F8309F84F80DA084F80E90216941F010
:1037B0002001216184F80C900120BDE8F087406968
:1037C00025EA00000004000CEAD12068406901E00D
:1037D0002068806925EA00000004000CAFD1ECE706
:1037E00070B516460D4604461EE02046FFF76CFEF7
:1037F00008B1012070BD681C16D0FEF7F7FB801BD6
:10380000A84200D885B920684069C04300060BD59E
:10381000002044F8300F20216173A073216941F02A
:10382000200121612073E4E720684069C04300065D
:10383000DBD4002070BD0000094808B5416941F0A3
:10384000010141614069002200F001000090114631
:103850000F20FEF757FEBDE808400F20FEF744BEDC
:10386000001002402DE9F04385B000243A4800944E
:10387000019402940394816941F01001816181698E
:1038800001F010010491816941F0040181618169B5
:1038900001F004010491816941F0080181618069AE
:1038A000012200F008002D4E5503049029463046B1
:1038B000FEF797FBDFF8A88000220F214046FEF7B5
:1038C00090FB012241F610014046FEF78AFBDFF82B
:1038D00094904FF44077002239464846FEF781FB2A
:1038E0001120CDE90050022569463046CDE9024558
:1038F000FEF782FA41F20F000126CDE90006694683
:103900004046CDE90245FEF777FA4FF40160CDE974
:103910000006CDE9026569464046FEF76DFAE8010A
:10392000CDE900050320CDE9024069464046FEF797
:1039300063FA1B208DE8510069464846FEF75CFAA1
:10394000CDE9007669464846CDE90245FEF754FACE
:1039500005B0BDE8F08300000010024000100140F7
:1039600000080140000C01400D4810B50B490160F2
:103970000C49416000214FF480428160C0E903128C
:1039800041618161C1610162FEF736FB002803D00D
:10399000BDE81040FDF732BF10BD000000540040EC
:1039A00070000020A0860100104810B50E4901608B
:1039B0004FF48271416000218160C1604FF4007258
:1039C0000161C0E905123822C0E907214162816224
:1039D0000A21C162FFF7A6F8002803D0BDE8104015
:1039E000FDF70CBF10BD000000300140C4000020F6
:1039F00010B596B000240F9410941194129413945F
:103A00001C2108A81494FCF7CFFD20216846FCF780
:103A1000CBFD2848264901604721C0E9011444F63E
:103A20001F61C0E9031444618461FFF787F908B19D
:103A3000FDF7E4FE4FF480500F900FA91D48FFF7EB
:103A4000BFF908B1FDF7DAFE1A48FFF7B3FA08B17B
:103A5000FDF7D4FE139413A916481494FFF73AF90E
:103A600008B1FDF7CBFE6020CDE908040A940B9461
:103A70000C940D94002208A90E480E94FFF734FA16
:103A800008B1FDF7BBFE00944FF40050CDE90440AF
:103A9000029401940394694606480794FFF7F0F8EE
:103AA00008B1FDF7ABFE0348FFF7F8F916B010BDFB
:103AB000002C01401C01002010B5114C0F480C21B6
:103AC00020604FF4E13060600020A060E060C4E955
:103AD0000401A061E0612046FFF70AFC08B1FDF790
:103AE0008DFE4FF4807207490548FFF78BFC206874
:103AF000C16841F01001C16010BD000000380140F4
:103B00006402002064010020FEE70000402101481B
:103B1000FEF762BA0008014070B50024064625464B
:103B2000F00900F015F87006060E012000F01AF8F2
:103B30006006040EFFF7EAFF08B144F0010400201C
:103B400000F010F86D1CEDB2082DE9D3204670BDD1
:103B500008B1012200E0002280210148FEF741BAAD
:103B60000008014008B1012200E0002220210148A4
:103B7000FEF737BA0008014008B1012200E0002238
:103B800010210148FEF72DBA00080140FEE710B5EC
:103B9000A0B0002480216846FCF706FD00212046E5
:103BA00000F0A8F88021684600F0D8F8641CE4B260
:103BB000082CF3D320B010BD10B50224202000F053
:103BC000B9F8204600F0B6F81F4804703F24A8203A
:103BD00000F0B0F8204600F0ADF80024D32000F04B
:103BE000A9F8204600F0A6F8402000F0A3F8A12094
:103BF00000F0A0F8C82000F09DF80021084600F071
:103C000063F87F24812000F095F8204600F092F8B8
:103C1000A42000F08FF8A62000F08CF8D52000F04A
:103C200089F8802000F086F88D2000F083F81420B9
:103C300000F080F80021012000F046F8BDE81040B7
:103C4000AF2000F077B80000200000202DE9F041FF
:103C500017460E46044600250BE03146204600F08C
:103C60000FF8641CE4B20F2C02D90024B61CF6B283
:103C70006D1C7A5D002AF0D12846BDE8F081000075
:103C800070B51646C206150E0C46072918D80F281F
:103C900016D82946204600F02DF80A48082100EBE6
:103CA0000610064600F05AF8641CE0B2294600F0FF
:103CB00021F806F10800BDE87040082100F04EB878
:103CC00070BD0000B653000870B50C46050001D069
:103CD000012D0ED10CB1012C0BD1DA2000F02AF805
:103CE000280100EB4410BDE87040801CC0B200F019
:103CF00021B870BD70B50E4D0C462978022905D14A
:103D0000072803D8B030C0B200F014F82878022891
:103D10000CD17F2C0AD804F00F0000F00BF8102013
:103D200000EB1410BDE8704000F004B870BD000056
:103D3000200000201CB500218DF804108DF805002E
:103D40004FF4FA7000900448022301AA78214068D9
:103D5000FEF716FA1CBD0000200000200EB54FF43F
:103D6000FA728DE807000448012340227821406858
:103D7000FEF79CFA0EBD00002000002010B501F0F7
:103D800081F801F06BF801F035F94FF4FA70FDF7A6
:103D90006FFF01F06FF801F059F8BDE8104001F035
:103DA00065B810B501F034F901F058F84FF4FA7025
:103DB000FDF75EFF01F024F9BDE8104001F046B8C0
:103DC0004FF4FA7240F6C411904201D2104602E05C
:103DD000884200D9084602490968486370470000D4
:103DE0001C01002070470321142000F0DDBA70B5DB
:103DF0000646082188B000240846FDF71BFA00217A
:103E00000D2000F0F9FF80210E20FDF713FA93201A
:103E10008DF8040020208DF8050006A801AB009065
:103E2000022219460C2000F0ACF805000DD100214B
:103E300001A8425C7254425C491C5440C9B2042936
:103E4000F7D3405CA04200D0022580210E2000F074
:103E5000ABFA08B0284670BD7FB54FF40B60012463
:103E6000CDE900040320CDE902401E4D002669463D
:103E70002846FDF7C1FF4020CDE9000669460294BF
:103E80002846FDF7B9FFE402002221462846FEF746
:103E9000A8F83220FDF7ECFE012221462846FEF765
:103EA000A0F86420FDF7E4FE00F045F80A20FDF7D5
:103EB000DFFE8321142000F09FFFFF21272000F068
:103EC0009BFF3F21282000F097FF3F21292000F091
:103ED00093FF8321142000F08FFF0A20FDF7C8FE16
:103EE0007FBD00000008014030B50446082187B0BE
:103EF00026250846FDF79EF907210D2000F07CFFDE
:103F00000321142000F050FA06A801AB00908DF8B0
:103F10000450012219460C2000F033F810B906981D
:103F2000102802D007B0022030BD07B02046BDE8FF
:103F30003040FFF75CBF10B50F21012000F05CFF9F
:103F4000012000F0A9F8C006FAD48D212A2000F043
:103F500053FF3E212B2000F04FFF1E212D2000F0AB
:103F60004BFF00212C2000F047FF4021152000F0DE
:103F700043FF3D21112000F03FFFFFF734FF0020F9
:103F800010BD2DE9FF5F00270225DDF838A0164699
:103F90008B468146B8460C2805D0B9F10E0F05D1E5
:103FA0001227102001E077273020804647F080015B
:103FB000022000F021FF80210420FDF73BF90021C1
:103FC000012000F019FF80210A2000F0EDF9002403
:103FD00005E01BF80410092000F00EFF641CB44239
:103FE000F7D34946012000F007FFB9F10C0F03D1C8
:103FF00080210D2000F0D8F940F2DC56042000F0BA
:104000004BF80446761E04D0E00702D114EA080FEC
:10401000F4D080210D20FDF70DF936B1062000F017
:104020003BF810F01B0F0CD0022580210C2000F073
:10403000BBF90021012000F0DFFE04B02846BDE8F6
:10404000F09F00253C40E00700D00125B9F10C0F9E
:10405000EBD10A2000F020F804460C2000F01CF8F8
:1040600010F007004FEAC40101D008390144CAF832
:10407000001024B1122C04D91224002603E00124DC
:10408000FBE7002605E0092000F006F803998855B3
:10409000761CA642F7D3C8E710B504460020FFF708
:1040A0006BFD7E2000EA440040F08000FFF734FD05
:1040B0000020FFF731FD04460120FFF75DFD20469B
:1040C00010BD0000FFF763FD25A200210320FFF7CC
:1040D000BDFD26A202210120FFF7B8FD27A2042181
:1040E0000120FFF7B3FD28A206210120FFF7AEFD56
:1040F000284C00BFFCF7CEFE552807D044280FD02F
:1041000043281DD04528F5D100F04AF8217802292E
:10411000F0D921A20020FFF799FD2078801E08E049
:1041200021780629E6D21CA20020FFF78FFD207817
:10413000801CC1B2217019A20020FFF787FDD9E7CA
:104140002078022806D0042807D00628D2D1FDF70F
:1041500099F8CFE7FDF70CF8CCE7FCF78BFCC9E743
:1041600041646D696E204D656E750000312E2043EF
:1041700068616E676520507764000000322E204130
:104180006464204944000000332E2044656C2049BB
:104190004400000062000020200000003E000000FB
:1041A0000EB500242646019402940094FFF7EFFC1C
:1041B00000F0B0F84FF47A70FDF75AFDFFF7E7FC16
:1041C00041A202210020FFF741FD4FF4FA7801AF30
:1041D000FDF7C8FAFCF75EFE05463E48FFF784FE91
:1041E00008B900F059FCA5F13000092813D8062CB5
:1041F00011D23D558DF8005004F109008DF8016091
:10420000C0B26A460221FFF721FD641CE4B2C82057
:10421000FDF72EFDDCE7432D10D0452D50D0522D5B
:10422000D6D1002CD4D0641EE4B204F109003E556E
:10423000C0B229A20221FFF709FDC9E700252846DF
:104240006FF02F0106E03A5C05EB850301EB4303B9
:10425000D518401CA042F6DB2048FDF774FB8146D0
:104260001F48FDF770FBA8420CD1FFF790FC1DA280
:1042700002210320FFF7EAFC4046FDF7F9FCFFF7B7
:104280007DFD1AE0A9450CD1FFF781FC18A202219F
:104290000320FFF7DBFC4046FDF7EAFCFFF712FFC7
:1042A0000BE0FFF774FC17A202210320FFF7CEFCFE
:1042B0004046FDF7DDFCFFF774FDFFF768FC87E77C
:1042C000FFF76EFF84E7000050617373776F7264CD
:1042D0003A0000006B000020200000000090000861
:1042E00000780008446F6F72204F70656E6564003F
:1042F00041646D696E20446F6F72204F70656E650A
:104300006400000050617373776F726420457272AD
:104310006F72000010B506A200210420FFF796FC82
:104320000221BDE8104004A20020FFF78FBC00006E
:1043300057656C636F6D6500506C65617365204FE8
:1043400070656E20446F6F72000000000148FEF738
:1043500079BB0000C400002010B5406A0021C1876D
:10436000C186FEF76DFB10BD7047000010B50C4C08
:1043700010F1FF4F01D3002002E0A04200DD2046F3
:10438000084900F02FFF214600F04AFE00F00AFF26
:1043900000F5FA70BDE8104080B2FFF711BD0000D3
:1043A000000034430000FA4470B50C460546FFF7A0
:1043B00073FE40EA04012846BDE8704000F01CBDD1
:1043C000FEF73AB830B58FB028216846FCF7ECF814
:1043D00014210AA8FCF7E8F80225012004900095B2
:1043E0001020059000244FF4E010CDE90840079517
:1043F0006846FEF795F908B172B6FEE70F20CDE9E1
:104400000A054FF48060CDE90C4001210AA80E9402
:10441000FEF7AAF8002801D072B6FEE70FB030BD53
:1044200070470000F0B50268194B1A4C1A4D4FF056
:104430008047984205D0B84203D0A04201D0A8429C
:1044400003D122F070064A683243984205D0B84240
:1044500003D0A04201D0A84203D122F44074CA681C
:1044600022434C6922F08002224302608A68C262C1
:104470000A688262984201D10969016301214161A0
:104480000169C90703D0016921F001010161F0BD93
:10449000002C0140000400400008004010B5846872
:1044A00042EA032224F47F440A432243826010BD7F
:1044B000826822F070020A4342F00701816070476F
:1044C00030B5036A026A22F001020262426884691E
:1044D00024F073050C682C4323F002058B682B43F2
:1044E0000A4DA8420BD123F00805CB6822F4407294
:1044F0002B434D6923F0040315438A692A43426024
:10450000846149684163036230BD0000002C0140B2
:1045100030B5026A036A23F01003036243688469BA
:104520000D6824F4E64444EA05248D6822F0200254
:1045300042EA05120B4DA8420ED1CD6822F080024E
:1045400042EA05124D6923F4406343EA85038D690D
:1045500022F0400243EA8503436084614968816335
:10456000026230BD002C014030B5036A026A22F4B9
:10457000807202624268C46923F4007324F07305F8
:104580000C682C438D6843EA05230C4DA8420ED1DC
:10459000CD6823F4006343EA05234D6922F44052B9
:1045A00042EA05128D6923F4806342EA05124260F3
:1045B000C4614968C163036230BD0000002C014042
:1045C00030B5046A026A22F4805202624268C3690A
:1045D0000D6823F4E64343EA05238D6824F4005470
:1045E00044EA0534064DA84204D14D6922F48042C4
:1045F00042EA85124260C36149680164046230BDC9
:10460000002C014010B5036A046A24F0010404621E
:10461000846924F0F00444EA021423F00A020A43F5
:104620008461026210BD10B5036A046A24F01004AC
:104630000462846923F0A00324F4704444EA023243
:1046400043EA01118261016210BD000038B5104CCF
:1046500020680168C943C90618D401684068009001
:104660002046FEF7D6FCE06B00684068C0F580711C
:1046700008484180418809B101210170BDE83840F6
:104680004FF4807204490248FEF7BCBE38BD0000FA
:1046900064020020040000206401002010B5406A7C
:1046A0000021C185C184FEF7ECFC10BD70B5446AE1
:1046B0002068406994F84110C0F3C01000252129FA
:1046C00004D118B1E584204600F08EF820684069D6
:1046D00094F84210C0F38010222904D118B1E58566
:1046E000204600F05AF8606C40F0100060642046EC
:1046F000FEF7C7FC70BD10B50146406A096809683D
:104700004FF0000289062ED4C28501680C3151E8B1
:10471000003F23F4807341E80034002CF5D1016898
:10472000143151E8003F23F0010341E80034002C2C
:10473000F5D10168143151E8003F23F0400341E80E
:104740000034002CF5D1202180F84210016B0129A2
:1047500009D101680C3151E8003F23F0100341E812
:104760000034002CF5D14263016B012902D0FEF721
:1047700057FE10BD818DFEF74BFC10BD10B5406A91
:1047800001214163016B012902D0FEF74AFE10BDF1
:10479000818D4908FEF73CFC10BD01680C3151E8E1
:1047A000002F22F4907241E80023002BF5D101681C
:1047B000143151E8002F22F0010241E80023002BC0
:1047C000F5D1016B012909D101680C3151E8002FA5
:1047D00022F0100241E80023002BF5D1202180F8BF
:1047E000421000210163704701680C3151E8002F2D
:1047F00022F0C00241E80023002BF5D1202180F8EF
:104800004110704708B590F84210222901D00220CB
:1048100008BD82684FF480539A4201D1016921B1E9
:10482000816A9A421BD04AB10AE00268816A5268E2
:10483000C2F308020A80816A891C08E0026972B129
:104840000268526802F07F020A70816A491C816224
:10485000C18D491E0904090CC18503D01BE0026803
:104860005268F1E70168CA6822F02002CA60016854
:10487000CA6822F48072CA6001684A6922F00102A3
:104880004A61202180F8421000214163026B012A15
:1048900003D0FEF7C5FD002008BD016301680C319F
:1048A00051E8002F22F0100241E80023002BF5D13F
:1048B00001680A68D20602D50A6849680091818DAC
:1048C000FEF7A6FBE7E7000070B504460068016943
:1048D000E26821F44051114301612169A068084355
:1048E000616908432168CA6841F20C639A43024334
:1048F000CA6020684169A26921F440711143416195
:104900001E492068884202D1FDF7D4FE01E0FDF780
:10491000C1FE00EBC00101EB001260686421800061
:10492000B2FBF0F3B3FBF1F36FF018067343B2FB85
:10493000F0F5B2FBF0F605EB8305322303EB05152A
:10494000B5FBF1F5B6FBF1F605F0F00505EB061544
:10495000B2FBF0F6B2FBF0F0B0FBF1F06FF0180232
:10496000504306EB800003EB0010B0FBF1F0216830
:1049700000F00F002844886070BD0000003801403E
:1049800038B5816204468285002013466064222285
:1049900084F84220E56B1B4AAA62E56B1A4AEA6278
:1049A000E56B1A4A2A63E26B50630A462168E06BA2
:1049B000091DFDF725F9206801684068009020690D
:1049C00048B120680C3050E8001F41F4807140E885
:1049D0000012002AF5D12068143050E8001F41F081
:1049E000010140E80012002AF5D12068143050E897
:1049F000001F41F0400140E80012002AF5D10020DC
:104A000038BD0000F74600087D470008AD460008A5
:104A10002DE9F843984617460D460446089E24E0C3
:104A2000701C22D0FDF7E2FAA0EB0800B0421AD8C1
:104A3000CEB12068C168490717D5802D15D0402D0B
:104A400013D00168C94309070FD4016800254068E5
:104A500000902046FFF7A1FE0820606484F84050D3
:104A60000120BDE8F8830320FBE72068006835EAF1
:104A7000000004D00020B842D2D00020F1E701208D
:104A8000F9E7000010B50348FEF7FCFABDE8104056
:104A9000FFF7DCBD640200202DE9F0472148FFF755
:104AA00023FA0028FAD11F480168C07809BA21F01A
:104AB000FF0404431C48FCF746FF07461B48FCF76D
:104AC00042FF06461A48FCF73EFF05461948FCF728
:104AD0003AFF81461848FCF736FF4FF47A78A74230
:104AE00003D0A64201D0A54205D1FFF750F8FFF749
:104AF00045F912A20CE0A14501D0A04203D1FFF775
:104B000046F8FFF7DFFAFFF742F8FFF74AF90EA27F
:104B100004210020FFF79AF84046BDE8F047FDF772
:104B2000A7B800006B000020007C0008008400088B
:104B30000088000800800008008C0008436172644F
:104B4000204F4B20000000004361726420657272A8
:104B50006F720000FEE700002DE9F04F89B00024DD
:104B6000182168460694FBF71FFD00263546374698
:104B70000794FFF70CF886A200210220FFF766F8E1
:104B800087A202210020FFF761F888A204210020FB
:104B9000FFF75CF888A206210020FFF757F8894844
:104BA000FCF7D1FEDFF820920890A9F1030887A254
:104BB00098F8010019F800100820FFF747F80DF1E8
:104BC000180AEB46FCF766F904463038092832D853
:104BD00098F801301AF80320062A2CD20832D0B2F5
:104BE00019F803107AA2FFF731F898F80110C1EB19
:104BF000C1031AF8010003EB0B0284548DF81C402A
:104C000000228DF81D20083019F80110C0B207AA43
:104C1000FFF71CF898F801101AF80100401CC0B208
:104C20000AF80100062802D219F8011058E0C8203D
:104C3000FDF71EF8C6E7522C0ED0552C29D0442C77
:104C400038D0452C52D0432CBCD100226FF02F011C
:104C50009DF81830584655E098F801001AF80030D1
:104C6000002BAFD05B1ED9B2C0EBC00404EB0B032A
:104C70000AF800100022CA5419F800300831C8B2EE
:104C80004C4653A21946FEF7E1FF98F80100215C5B
:104C900024E098F801004446002893D019F8001049
:104CA0001AF800004AA20830C0B2FEF7CFFF6078C1
:104CB000401E0FE098F801004446022882D219F8FD
:104CC00000101AF8000042A20830C0B2FEF7BEFF82
:104CD0006078401CC0B2607019F800101AF800002B
:104CE0003AA20830C0B2FEF7B1FFA0E7FFF7EAF939
:104CF00009B0BDE8F08F845C06EB860601EB460642
:104D00002644521C9342F6DC00229DF8193007E03D
:104D1000841805EB8505E47901EB45052544521C13
:104D20009342F5DC00229DF81A3007E0841807EB67
:104D30008707A47B01EB47072744521C9342F5DC0D
:104D400008984FF47A74864216D1BD4214D1AE420F
:104D500012D0FEF71CFF1FA203210020FEF776FFF2
:104D6000184D2846FCF7D6FD0A20FCF781FF39468E
:104D70002846FCF7EAFD06E0FEF709FF1AA2032128
:104D80000020FEF763FF2046FCF772FFAEE700004D
:104D90004368616E676520557365722050776400C3
:104DA0004F6C645F5077643A000000004E65775F97
:104DB0005077643A00000000436F6E5F5077643AAA
:104DC0000000000000780008650000205F0000007F
:104DD000200000005573657220507764204368619D
:104DE0006E6765642100000050617373776F7264B1
:104DF000204572726F72210070B504460D46002086
:104E0000FEF7BAFE7E2000EA4400FEF785FE284643
:104E1000FEF782FEBDE870400120FEF7ADBE090737
:104E2000090E002804DB00F1E02080F80014704730
:104E300000F00F0000F1E02080F8141D70473038BA
:104E40000A2801D201207047002070470122110377
:104E50000148FDF7C6B800000008014000224FF4E9
:104E600080510148FDF7BDB8000801400020FFF760
:104E70007DBA000000224FF400710148FDF7B1B87F
:104E8000000C0140012251020148FDF7AAB80000C0
:104E9000000C01401CB5FDF7D7FAFFF793FAFEF7B7
:104EA000E1FCFEF7C9FCFEF75FFDFEF705FEFEF72D
:104EB0007BFDFEF79DFDFEF77FFEFEF768FEFEF729
:104EC000CBFFFCF745F939A200210220FEF7BEFE18
:104ED0004FF4FA70FCF7CCFEFCF74EFB08B136A29B
:104EE00000E037A202210846FEF7B0FE4FF47A70C8
:104EF000FCF7BEFEFEF74BFE344801903448364CBA
:104F00000090DFF8D0B04FF0000A2046FCF71BFD00
:104F10004FF05A35A84231D0304E3046FCF7FAFCFB
:104F20002F4F3846FCF7F6FCDFF8B8804046FCF718
:104F3000F1FCDFF8B4904846FCF7ECFC2046FCF7A7
:104F4000E9FC59463046FCF700FD38460199FCF76C
:104F5000FCFC40460099FCF7F8FC51464846FCF73B
:104F6000F4FC29462046FCF7F0FC1E4801210838D5
:104F7000FCF7EBFC01211D48FCF7E7FCFFF710F9FB
:104F80001B4C47F2305500BFFCF7ECFBFDF72EF849
:104F90002168401AA84204D9FCF714FCFDF726F852
:104FA00020600A20FCF764FEEEE700004553502025
:104FB000496E69742E2E2E00455350204F4B210010
:104FC000455350204661696C210000001D41D3BA51
:104FD000337BF5C740E20100009400080078000828
:104FE000007C00080080000800900008F88300089A
:104FF000000000200148FFF7B9B900000000B442EA
:1050000000224FF480710148FCF7EBBF000C014017
:10501000012211020148FCF7E4BF0000000C01402E
:105020004FF47F0C1CEAD0121EBF1CEAD11392EA87
:105030000C0F93EA0C0F00F0858090EA010F48BF37
:1050400042F4807240F4000C41F400002CF07F41E7
:1050500020F07F4000B58142A2EB03020FF2081C52
:10506000ACEB504EC0F100009EF800E04FEA4E0E4F
:1050700000FB0EFC38BF49004FEA2C1C02F5FA0277
:105080000CFB0EF34FEACE1E4FEA112C4FEAC12162
:105090000EEB635E42EB22420EFB0CFC4FEA1C530C
:1050A00000FB03114FEA112C4FEA01310EFB0CFCFF
:1050B0004FEADC4C00FB0C11C14228BF09184CEB35
:1050C00003335DF804EB10EB410143EBC250B2F542
:1050D0007C0F38BF704729D512F0F00F1CBF00F1CC
:1050E000C04000F00040704700818283848586873D
:1050F00088898B8C8D8E8F919293959697999A9C97
:105100009D9FA0A2A3A5A7A8AAACAEB0B2B3B5B705
:10511000B9BCBEC0C2C5C7C9CCCED1D4D7D9DCDFDB
:10512000E2E6E9ECF0F3F7FAFE0000004FEA400C8B
:105130000CF1807CBCF17E4F28BF7047B0F1C040BD
:1051400000F017B990EA010F0CEAD11348BF42F4FE
:105150008072624538BF634507D213F47F0F16D0C3
:1051600080EA010000F00040704710B500F0BBF885
:10517000097EFC3E00F005B880EA010000F0004026
:10518000704780EA010000F0004000F0F2B812F42D
:105190007F0F04BF0248704780EA010000F0E9B8C1
:1051A0000000C07FC10DD1F19E0206DB4FEA002353
:1051B00043F0004323FA02F07047004207D54FEA5C
:1051C0004001B1F1FE4F02D24FF00000704710B520
:1051D00000F089F849922480002070476FEA20008F
:1051E000704700004FF47F0C1CEAD0121EBF1CEA6F
:1051F000D11392EA0C0F93EA0C0F00F0478090EA6B
:10520000010F48BF42F480724FF0004C4CEA00207E
:105210004CEA012102EB0302A0FB0113A2F50002FC
:10522000002918BF43F001035B0028BF4FEA330396
:1052300042EB22425FEA132C4CEBC2502EBFBCEB78
:10524000436FB2F57C0F70474FEA036CBCF1004F1F
:1052500008BF20F00100B2F57C0F38BF70470BD5B6
:1052600082F0FF0212F5803FC8BF704700F1C040D6
:10527000D8BF00F00040704700F5000C5FEA4C0C0E
:1052800048BF7047B0F1C04000F073B890EA010F1A
:105290000CEAD11348BF42F48072624538BF6345BF
:1052A00004D280EA010000F00040704710B500F021
:1052B0001AF800BF8900013E00F007B800F009B8F5
:1052C0005FEA410C5FEA1C6C08D080EA010000F044
:1052D00050B85FEA400C5FEA1C6CF6D14FF000401A
:1052E000A0F5800070470EF1020E2EF0030E5EF85E
:1052F000044B244204D44FEA4102B2F17F4F11D84B
:105300004FEA4003B3F17F4F0CD80ED14FEAD07C67
:10531000B2F17F4F0CEB4C0C0CF1020C08BF4CEBC4
:10532000D17C04E04FF0080C01E04FEAD17C0CEB9B
:105330004C0324FA03F404F00704B4F1040C06D27D
:105340000EEB840CBDE810404CF0010C6047DFE828
:105350000CF0070802024FF00040A0F5800010BDDD
:105360000846420018BFD2F1807288BF00F00040AA
:1053700010BDFF2141EAD050C00570470102020371
:105380000405060708090A0B0C0D0E0F101000008B
:1053900000000000000001020304060708090000E5
:1053A00000000102030431323355343536443738B6
:1053B0003923453043520000000000000000000087
:1053C00000000000000000FE020202020202003F94
:1053D000202020202020000000000000000000000D
:1053E00000000000000000FE020202020202003F74
:1053F00020202020202000FE020202020202003FA4
:1054000020202020202000FE020202020202003F93
:1054100020202020202000FE020202020202003F83
:1054200020202020202000FE020202020202003F73
:1054300020202020202000FE020202020202003F63
:10544000202020202020000000000000000000009C
:10545000000000000000000000000000000000004C
:10546000000000000000000000000000000000003C
:1054700000000000000000FE020202020202003FE3
:1054800020202020202000FE020202020202003F13
:1054900020202020202000FE020202020202003F03
:1054A00020202020202000FE020202020202003FF3
:1054B00020202020202000FE020202020202003FE3
:1054C00020202020202000FE020202020202003FD3
:1054D00020202020202000FE020202020202003FC3
:1054E00020202020202000FE020202020202003FB3
:1054F00020202020202000FE020202020202003FA3
:1055000020202020202000FE020202020202003F92
:1055100020202020202000FE020202020202003F82
:1055200020202020202000FE020202020202003F72
:1055300020202020202000FE020202020202003F62
:1055400020202020202000FE020202020202003F52
:1055500020202020202000FE020202020202003F42
:1055600020202020202000FE020202020202003F32
:10557000202020202020000000000000000000006B
:10558000000000000000000000000000000000001B
:10559000000000000000000000000000000000000B
:1055A00000000000000000000000000000000000FB
:1055B00000000000000000000000000000000000EB
:1055C000000000000000000000F8000000000000E3
:1055D00000330000000000100C02100C020000005C
:1055E0000000000000000040C07840C078000004C7
:1055F0003F04043F040000708888FC083000001855
:105600002020FF211E00F008F0806018000000310B
:105610000C031E211E0000F00888700000001E21EF
:10562000232C1927211000120E000000000000009A
:10563000000000000000000000E01804020000006C
:1056400000071820400000020418E000000000409D
:10565000201807000000404080F080404000020217
:10566000010F0102020000000000E0000000000144
:1056700001010F0101010000000000000000009086
:1056800070000000000000000000000000000001A9
:1056900001010101010000000000000000000030D5
:1056A00030000000000000000000C038040000606E
:1056B00018070000000000E010080810E000000FCC
:1056C000102020100F0000001010F8000000000053
:1056D00020203F202000007008080808F00000305B
:1056E00028242221300000300808088870000018A3
:1056F000202121221C000000804030F8000000061C
:105700000524243F242400F888888808080000190C
:10571000202020110E0000E0108888900000000F6B
:10572000112020201F0000180808886818000000B9
:10573000003E010000000070880808887000001C0E
:10574000222121221C0000F008080810E0000001BE
:10575000122222110F00000000C0C0000000000053
:105760000030300000000000008000000000000059
:1057700000E0000000000000804020100800000150
:105780000204081020000040404040404000000259
:1057900002020202020000081020408000000020E7
:1057A000100804020100007048080888700000001A
:1057B000003037000000C030C828E810E0000718AB
:1057C00027282F2817000000C038E0000000203CE8
:1057D00023020227382008F8888888700000203FBC
:1057E000202020110E00C0300808080838000718D3
:1057F00020202010080008F808080810E000203FCA
:10580000202020100F0008F88888E8081000203FAA
:1058100020202320180008F88888E8081000203F7E
:10582000200003000000C0300808083800000718F6
:105830002020221E020008F808000008F808203F77
:10584000210101213F20000808F80808000000207D
:10585000203F2020000000000808F8080800C08051
:1058600080807F00000008F888C028180800203FCA
:1058700020012638200008F8080000000000203F22
:1058800020202020300008F8F800F8F80800203F19
:10589000013E013F200008F830C00008F808203F12
:1058A000200007183F00E01008080810E0000F1063
:1058B000202020100F0008F808080808F000203FFA
:1058C000210101010000E01008080810E0000F109D
:1058D000282830504F0008F8888888887000203FBA
:1058E0002000030C302000708808080838000038B9
:1058F000202121221C00180808F8080818000000C0
:10590000203F2000000008F808000008F808001FE9
:10591000202020201F000878880000C838080000D8
:1059200007380E01000008F800F800F8080000032E
:105930003E013E0300000818688080681808203087
:105940002C03032C30200838C800C8380800000099
:10595000203F2000000010080808C8380800203840
:10596000262120201800000000FE02020200000094
:10597000007F40404000000438C0000000000000EC
:1059800000010638C00000020202FE0000000040D4
:1059900040407F00000000000402020400000000FC
:1059A00000000000000000000000000000008080F7
:1059B00080808080808000020204000000000000DF
:1059C000000000000000000080808000000000193E
:1059D0002424123F200010F0008080000000003FCF
:1059E000112020110E000000008080800000000EB9
:1059F000112020201100000080808090F000001F06
:105A0000202020103F200000808080800000001FA8
:105A1000242424241700008080E09090200000209F
:105A2000203F202000000000808080808000006BEC
:105A300094949493600010F0008080800000203FD8
:105A4000210000203F2000809898000000000020E6
:105A5000203F20200000000000809898000000C037
:105A60008080807F000010F0000080808000203F58
:105A7000240629302000001010F80000000000204B
:105A8000203F202000008080808080808000203F98
:105A900020003F20003F8080008080800000203F69
:105AA000210000203F200000808080800000001F37
:105AB000202020201F00808000808000000080FFC8
:105AC000912020110E000000008080008000000E58
:105AD00011202091FF808080800080808000202025
